{
    "_format": "hh-sol-artifact-1",
    "contractName": "DataConsumerV3",
    "sourceName": "contracts/chainlinkcontract.sol",
    "abi": [
        {
            "inputs": [],
            "stateMutability": "nonpayable",
            "type": "constructor"
        },
        {
            "inputs": [
                {
                    "internalType": "string",
                    "name": "_input",
                    "type": "string"
                }
            ],
            "name": "getChainlinkDataFeedLatestAnswer",
            "outputs": [
                {
                    "internalType": "int256",
                    "name": "",
                    "type": "int256"
                }
            ],
            "stateMutability": "view",
            "type": "function"
        }
    ],
    "bytecode": "0x608060405234801561001057600080fd5b50731b44f3514812d835eb1bdb0acb33d3fa3351ee436000806101000a81548173ffffffffffffffffffffffffffffffffffffffff021916908373ffffffffffffffffffffffffffffffffffffffff16021790555073694aa1769357215de4fac081bf1f309adc325306600160006101000a81548173ffffffffffffffffffffffffffffffffffffffff021916908373ffffffffffffffffffffffffffffffffffffffff16021790555073c59e3633baac79493d908e63626716e204a45edf600260006101000a81548173ffffffffffffffffffffffffffffffffffffffff021916908373ffffffffffffffffffffffffffffffffffffffff160217905550735fb1616f78da7afc9ff79e0371741a747d2a7f22600360006101000a81548173ffffffffffffffffffffffffffffffffffffffff021916908373ffffffffffffffffffffffffffffffffffffffff160217905550610908806101736000396000f3fe608060405234801561001057600080fd5b506004361061002b5760003560e01c80636b33e35414610030575b600080fd5b61004a6004803603810190610045919061057d565b610060565b60405161005791906106bb565b60405180910390f35b60006100a1826040518060400160405280600781526020017f4254432f55534400000000000000000000000000000000000000000000000000815250610475565b156101565760008060009054906101000a900473ffffffffffffffffffffffffffffffffffffffff1673ffffffffffffffffffffffffffffffffffffffff1663feaf968c6040518163ffffffff1660e01b815260040160a06040518083038186803b15801561010f57600080fd5b505afa158015610123573d6000803e3d6000fd5b505050506040513d601f19601f8201168201806040525081019061014791906105c6565b50505091505080915050610470565b610195826040518060400160405280600781526020017f4554482f55534400000000000000000000000000000000000000000000000000815250610475565b1561024b576000600160009054906101000a900473ffffffffffffffffffffffffffffffffffffffff1673ffffffffffffffffffffffffffffffffffffffff1663feaf968c6040518163ffffffff1660e01b815260040160a06040518083038186803b15801561020457600080fd5b505afa158015610218573d6000803e3d6000fd5b505050506040513d601f19601f8201168201806040525081019061023c91906105c6565b50505091505080915050610470565b61028a826040518060400160405280600881526020017f4c494e4b2f555344000000000000000000000000000000000000000000000000815250610475565b15610340576000600260009054906101000a900473ffffffffffffffffffffffffffffffffffffffff1673ffffffffffffffffffffffffffffffffffffffff1663feaf968c6040518163ffffffff1660e01b815260040160a06040518083038186803b1580156102f957600080fd5b505afa15801561030d573d6000803e3d6000fd5b505050506040513d601f19601f8201168201806040525081019061033191906105c6565b50505091505080915050610470565b61037f826040518060400160405280600781526020017f4254432f45544800000000000000000000000000000000000000000000000000815250610475565b15610435576000600360009054906101000a900473ffffffffffffffffffffffffffffffffffffffff1673ffffffffffffffffffffffffffffffffffffffff1663feaf968c6040518163ffffffff1660e01b815260040160a06040518083038186803b1580156103ee57600080fd5b505afa158015610402573d6000803e3d6000fd5b505050506040513d601f19601f8201168201806040525081019061042691906105c6565b50505091505080915050610470565b6040517f08c379a0000000000000000000000000000000000000000000000000000000008152600401610467906106d6565b60405180910390fd5b919050565b60008160405160200161048891906106a4565b60405160208183030381529060405280519060200120836040516020016104af91906106a4565b6040516020818303038152906040528051906020012014905092915050565b60006104e16104dc8461071b565b6106f6565b9050828152602081018484840111156104fd576104fc610844565b5b61050884828561079d565b509392505050565b60008151905061051f8161088d565b92915050565b600082601f83011261053a5761053961083f565b5b813561054a8482602086016104ce565b91505092915050565b600081519050610562816108a4565b92915050565b600081519050610577816108bb565b92915050565b6000602082840312156105935761059261084e565b5b600082013567ffffffffffffffff8111156105b1576105b0610849565b5b6105bd84828501610525565b91505092915050565b600080600080600060a086880312156105e2576105e161084e565b5b60006105f088828901610568565b955050602061060188828901610510565b945050604061061288828901610553565b935050606061062388828901610553565b925050608061063488828901610568565b9150509295509295909350565b61064a81610773565b82525050565b600061065b8261074c565b6106658185610768565b93506106758185602086016107ac565b80840191505092915050565b600061068e601583610757565b915061069982610864565b602082019050919050565b60006106b08284610650565b915081905092915050565b60006020820190506106d06000830184610641565b92915050565b600060208201905081810360008301526106ef81610681565b9050919050565b6000610700610711565b905061070c82826107df565b919050565b6000604051905090565b600067ffffffffffffffff82111561073657610735610810565b5b61073f82610853565b9050602081019050919050565b600081519050919050565b600082825260208201905092915050565b600081905092915050565b6000819050919050565b6000819050919050565b600069ffffffffffffffffffff82169050919050565b82818337600083830152505050565b60005b838110156107ca5780820151818401526020810190506107af565b838111156107d9576000848401525b50505050565b6107e882610853565b810181811067ffffffffffffffff8211171561080757610806610810565b5b80604052505050565b7f4e487b7100000000000000000000000000000000000000000000000000000000600052604160045260246000fd5b600080fd5b600080fd5b600080fd5b600080fd5b6000601f19601f8301169050919050565b7f556e737570706f72746564206461746120666565640000000000000000000000600082015250565b61089681610773565b81146108a157600080fd5b50565b6108ad8161077d565b81146108b857600080fd5b50565b6108c481610787565b81146108cf57600080fd5b5056fea26469706673582212206b3c83ec1d046ab2e67ebb6c6aab7ff43ea89095833a3479b056cb9e85e1907564736f6c63430008070033",
    "linkReferences": {},
    "deployedLinkReferences": {}
}